:020000040000FA
:0600000000000EEF00F00D
:0400080004EF00F011
:080018000CEF00F004D839D808
:100020003FD821D8FCD7870EC16E600EC26EE10E9C
:10003000926EDC0E936ED00E946E0F0E956E000EC7
:10004000966E880ED56E100E806E046A036A0F01DC
:10005000190EAF6E0F01AC840F01240EAC6E0F01B0
:10006000900EAB6E1200F2A4FED7F2CF02F0F29E19
:10007000D6CF00F0D7CF01F0660E00269E0E0122EB
:1000800001C0D7FF00C0D6FF0250800BF212F294DD
:1000900012008088030603E1640E036E809812004C
:1000A0008350080B046201D01200046E04B61200E3
:1000B00003D81BD880721200230E75EC00F0380EA6
:1000C00075EC00F0500E75EC00F0370E75EC00F09A
:1000D000350E75EC00F0300E75EC00F0300E75EC5E
:1000E00000F00D0E75EC00F01200AD6E0F019EA831
:0600F00077EF00F01200A2
:020000040030CA
:08000000FFFAF6FEFFFFFBFF13
:00000001FF
